{
  "contractName": "GuessGame",
  "abi": [
    {
      "anonymous": false,
      "inputs": [
        {
          "indexed": false,
          "internalType": "uint256",
          "name": "playerChoice",
          "type": "uint256"
        },
        {
          "indexed": false,
          "internalType": "uint256",
          "name": "computerChoice",
          "type": "uint256"
        },
        {
          "indexed": false,
          "internalType": "uint256",
          "name": "result",
          "type": "uint256"
        }
      ],
      "name": "GuessResult",
      "type": "event"
    },
    {
      "constant": false,
      "inputs": [
        {
          "internalType": "uint256",
          "name": "playerChoice",
          "type": "uint256"
        },
        {
          "internalType": "uint256",
          "name": "computerChoice",
          "type": "uint256"
        }
      ],
      "name": "play",
      "outputs": [
        {
          "internalType": "bool",
          "name": "",
          "type": "bool"
        }
      ],
      "payable": true,
      "stateMutability": "payable",
      "type": "function"
    },
    {
      "constant": true,
      "inputs": [],
      "name": "test",
      "outputs": [
        {
          "internalType": "bool",
          "name": "",
          "type": "bool"
        }
      ],
      "payable": false,
      "stateMutability": "pure",
      "type": "function"
    }
  ],
  "bytecode": "0x608060405234801561001057600080fd5b50610230806100206000396000f3fe6080604052600436106100295760003560e01c80637bc49a951461002e578063f8a8fd6d1461007e575b600080fd5b6100646004803603604081101561004457600080fd5b8101908080359060200190929190803590602001909291905050506100ad565b604051808215151515815260200191505060405180910390f35b34801561008a57600080fd5b506100936101f2565b604051808215151515815260200191505060405180910390f35b600080831180156100bf575060038311155b80156100cb5750600082115b80156100d8575060038211155b156101e75781831415610132577fa70bef6827988aad0390a3cec93a1e34f5b83b132ad302b0a0afc8d1a16a7d0b8383600160405180848152602001838152602001828152602001935050505060405180910390a16101de565b6003600183018161013f57fe5b06831415610194577fa70bef6827988aad0390a3cec93a1e34f5b83b132ad302b0a0afc8d1a16a7d0b8383600260405180848152602001838152602001828152602001935050505060405180910390a16101dd565b7fa70bef6827988aad0390a3cec93a1e34f5b83b132ad302b0a0afc8d1a16a7d0b8383600360405180848152602001838152602001828152602001935050505060405180910390a15b5b600190506101ec565b600090505b92915050565b6000600190509056fea265627a7a72315820d3ef9e40963836715bba3948e51887e2bb9ba4b36e168e2c1bebd2505f3357a664736f6c63430005100032",
  "source": "// SPDX-License-Identifier: MIT\npragma solidity >=0.4.22 <0.9.0;\n\ncontract GuessGame {\n  event GuessResult(uint playerChoice, uint computerChoice, uint result);\n\n  function play(uint playerChoice, uint computerChoice) public payable returns (bool) {\n    if (playerChoice > 0 && playerChoice <= 3 && computerChoice > 0 && computerChoice <= 3) {\n      if (playerChoice == computerChoice) {\n        emit GuessResult(playerChoice, computerChoice, 1);\n      } else if (playerChoice == (computerChoice + 1) % 3) {\n        emit GuessResult(playerChoice, computerChoice, 2);\n      } else {\n        emit GuessResult(playerChoice, computerChoice, 3);\n      }\n      return true;\n    } else {\n      return false;\n    }\n  }\n\n  function test() public pure returns (bool) {\n    return true;\n  }\n\n}",
  "sourcePath": "/Users/karidyang/project/103-learning/first-DApp/contracts/GuessGame.sol",
  "compiler": {
    "name": "solc",
    "version": "0.5.16+commit.9c3226ce.Emscripten.clang"
  },
  "schemaVersion": "3.3.4",
  "updatedAt": "2021-03-26T02:37:03.687Z",
  "networkType": "ethereum",
  "devdoc": {
    "methods": {}
  },
  "userdoc": {
    "methods": {}
  }
}